{
  "_format": "hh-sol-artifact-1",
  "contractName": "Lazy",
  "sourceName": "contracts/Lazy.sol",
  "abi": [
    {
      "inputs": [],
      "stateMutability": "nonpayable",
      "type": "constructor"
    },
    {
      "anonymous": false,
      "inputs": [
        {
          "indexed": true,
          "internalType": "address",
          "name": "owner",
          "type": "address"
        },
        {
          "indexed": true,
          "internalType": "address",
          "name": "approved",
          "type": "address"
        },
        {
          "indexed": true,
          "internalType": "uint256",
          "name": "tokenId",
          "type": "uint256"
        }
      ],
      "name": "Approval",
      "type": "event"
    },
    {
      "anonymous": false,
      "inputs": [
        {
          "indexed": true,
          "internalType": "address",
          "name": "owner",
          "type": "address"
        },
        {
          "indexed": true,
          "internalType": "address",
          "name": "operator",
          "type": "address"
        },
        {
          "indexed": false,
          "internalType": "bool",
          "name": "approved",
          "type": "bool"
        }
      ],
      "name": "ApprovalForAll",
      "type": "event"
    },
    {
      "anonymous": false,
      "inputs": [
        {
          "indexed": true,
          "internalType": "address",
          "name": "previousOwner",
          "type": "address"
        },
        {
          "indexed": true,
          "internalType": "address",
          "name": "newOwner",
          "type": "address"
        }
      ],
      "name": "OwnershipTransferred",
      "type": "event"
    },
    {
      "anonymous": false,
      "inputs": [
        {
          "indexed": true,
          "internalType": "address",
          "name": "from",
          "type": "address"
        },
        {
          "indexed": true,
          "internalType": "address",
          "name": "to",
          "type": "address"
        },
        {
          "indexed": true,
          "internalType": "uint256",
          "name": "tokenId",
          "type": "uint256"
        }
      ],
      "name": "Transfer",
      "type": "event"
    },
    {
      "inputs": [
        {
          "internalType": "address",
          "name": "to",
          "type": "address"
        },
        {
          "internalType": "uint256",
          "name": "tokenId",
          "type": "uint256"
        }
      ],
      "name": "approve",
      "outputs": [],
      "stateMutability": "nonpayable",
      "type": "function"
    },
    {
      "inputs": [
        {
          "internalType": "address",
          "name": "owner",
          "type": "address"
        }
      ],
      "name": "balanceOf",
      "outputs": [
        {
          "internalType": "uint256",
          "name": "",
          "type": "uint256"
        }
      ],
      "stateMutability": "view",
      "type": "function"
    },
    {
      "inputs": [
        {
          "internalType": "uint256",
          "name": "tokenId",
          "type": "uint256"
        }
      ],
      "name": "buyNFT",
      "outputs": [],
      "stateMutability": "payable",
      "type": "function"
    },
    {
      "inputs": [
        {
          "internalType": "uint256",
          "name": "tokenId",
          "type": "uint256"
        }
      ],
      "name": "getApproved",
      "outputs": [
        {
          "internalType": "address",
          "name": "",
          "type": "address"
        }
      ],
      "stateMutability": "view",
      "type": "function"
    },
    {
      "inputs": [],
      "name": "getNFTs",
      "outputs": [
        {
          "components": [
            {
              "internalType": "string",
              "name": "name",
              "type": "string"
            },
            {
              "internalType": "string",
              "name": "description",
              "type": "string"
            },
            {
              "internalType": "string",
              "name": "imageUrl",
              "type": "string"
            },
            {
              "internalType": "uint256",
              "name": "tokenId",
              "type": "uint256"
            },
            {
              "internalType": "address",
              "name": "owner",
              "type": "address"
            },
            {
              "internalType": "uint256",
              "name": "price",
              "type": "uint256"
            },
            {
              "internalType": "uint256",
              "name": "royalty",
              "type": "uint256"
            }
          ],
          "internalType": "struct Lazy.NFTStruct[]",
          "name": "NFTs",
          "type": "tuple[]"
        }
      ],
      "stateMutability": "view",
      "type": "function"
    },
    {
      "inputs": [
        {
          "internalType": "address",
          "name": "owner",
          "type": "address"
        },
        {
          "internalType": "address",
          "name": "operator",
          "type": "address"
        }
      ],
      "name": "isApprovedForAll",
      "outputs": [
        {
          "internalType": "bool",
          "name": "",
          "type": "bool"
        }
      ],
      "stateMutability": "view",
      "type": "function"
    },
    {
      "inputs": [
        {
          "internalType": "string",
          "name": "name",
          "type": "string"
        },
        {
          "internalType": "string",
          "name": "description",
          "type": "string"
        },
        {
          "internalType": "string",
          "name": "imageUrl",
          "type": "string"
        },
        {
          "internalType": "uint256",
          "name": "price",
          "type": "uint256"
        },
        {
          "internalType": "uint256",
          "name": "royalty",
          "type": "uint256"
        }
      ],
      "name": "mint",
      "outputs": [],
      "stateMutability": "payable",
      "type": "function"
    },
    {
      "inputs": [],
      "name": "name",
      "outputs": [
        {
          "internalType": "string",
          "name": "",
          "type": "string"
        }
      ],
      "stateMutability": "view",
      "type": "function"
    },
    {
      "inputs": [],
      "name": "owner",
      "outputs": [
        {
          "internalType": "address",
          "name": "",
          "type": "address"
        }
      ],
      "stateMutability": "view",
      "type": "function"
    },
    {
      "inputs": [
        {
          "internalType": "uint256",
          "name": "tokenId",
          "type": "uint256"
        }
      ],
      "name": "ownerOf",
      "outputs": [
        {
          "internalType": "address",
          "name": "",
          "type": "address"
        }
      ],
      "stateMutability": "view",
      "type": "function"
    },
    {
      "inputs": [],
      "name": "renounceOwnership",
      "outputs": [],
      "stateMutability": "nonpayable",
      "type": "function"
    },
    {
      "inputs": [
        {
          "internalType": "address",
          "name": "from",
          "type": "address"
        },
        {
          "internalType": "address",
          "name": "to",
          "type": "address"
        },
        {
          "internalType": "uint256",
          "name": "tokenId",
          "type": "uint256"
        }
      ],
      "name": "safeTransferFrom",
      "outputs": [],
      "stateMutability": "nonpayable",
      "type": "function"
    },
    {
      "inputs": [
        {
          "internalType": "address",
          "name": "from",
          "type": "address"
        },
        {
          "internalType": "address",
          "name": "to",
          "type": "address"
        },
        {
          "internalType": "uint256",
          "name": "tokenId",
          "type": "uint256"
        },
        {
          "internalType": "bytes",
          "name": "data",
          "type": "bytes"
        }
      ],
      "name": "safeTransferFrom",
      "outputs": [],
      "stateMutability": "nonpayable",
      "type": "function"
    },
    {
      "inputs": [
        {
          "internalType": "address",
          "name": "operator",
          "type": "address"
        },
        {
          "internalType": "bool",
          "name": "approved",
          "type": "bool"
        }
      ],
      "name": "setApprovalForAll",
      "outputs": [],
      "stateMutability": "nonpayable",
      "type": "function"
    },
    {
      "inputs": [
        {
          "internalType": "bytes4",
          "name": "interfaceId",
          "type": "bytes4"
        }
      ],
      "name": "supportsInterface",
      "outputs": [
        {
          "internalType": "bool",
          "name": "",
          "type": "bool"
        }
      ],
      "stateMutability": "view",
      "type": "function"
    },
    {
      "inputs": [],
      "name": "symbol",
      "outputs": [
        {
          "internalType": "string",
          "name": "",
          "type": "string"
        }
      ],
      "stateMutability": "view",
      "type": "function"
    },
    {
      "inputs": [
        {
          "internalType": "uint256",
          "name": "tokenId",
          "type": "uint256"
        }
      ],
      "name": "tokenURI",
      "outputs": [
        {
          "internalType": "string",
          "name": "",
          "type": "string"
        }
      ],
      "stateMutability": "view",
      "type": "function"
    },
    {
      "inputs": [
        {
          "internalType": "address",
          "name": "from",
          "type": "address"
        },
        {
          "internalType": "address",
          "name": "to",
          "type": "address"
        },
        {
          "internalType": "uint256",
          "name": "tokenId",
          "type": "uint256"
        }
      ],
      "name": "transferFrom",
      "outputs": [],
      "stateMutability": "nonpayable",
      "type": "function"
    },
    {
      "inputs": [
        {
          "internalType": "address",
          "name": "newOwner",
          "type": "address"
        }
      ],
      "name": "transferOwnership",
      "outputs": [],
      "stateMutability": "nonpayable",
      "type": "function"
    }
  ],
  "bytecode": "0x6080604052655af3107a40006008553480156200001b57600080fd5b5060408051808201825260098152682630bd3c9021b7b4b760b91b6020808301918252835180850190945260038452624c5a4360e81b9084015281519192916200006891600091620000f7565b5080516200007e906001906020840190620000f7565b5050506200009b62000095620000a160201b60201c565b620000a5565b620001da565b3390565b600680546001600160a01b038381166001600160a01b0319831681179093556040519116919082907f8be0079c531659141344cd1fd0a4f28419497f9722a3daafe3b4186f6b6457e090600090a35050565b82805462000105906200019d565b90600052602060002090601f01602090048101928262000129576000855562000174565b82601f106200014457805160ff191683800117855562000174565b8280016001018555821562000174579182015b828111156200017457825182559160200191906001019062000157565b506200018292915062000186565b5090565b5b8082111562000182576000815560010162000187565b600181811c90821680620001b257607f821691505b60208210811415620001d457634e487b7160e01b600052602260045260246000fd5b50919050565b6120ec80620001ea6000396000f3fe6080604052600436106101145760003560e01c806370a08231116100a0578063a22cb46511610064578063a22cb465146102e8578063b88d4fde14610308578063c87b56dd14610328578063e985e9c514610348578063f2fde38b1461039157600080fd5b806370a082311461025f578063715018a61461028d57806389ca53a8146102a25780638da5cb5b146102b557806395d89b41146102d357600080fd5b8063227212f2116100e7578063227212f2146101ca57806323b872dd146101ec57806342842e0e1461020c57806351ed82881461022c5780636352211e1461023f57600080fd5b806301ffc9a71461011957806306fdde031461014e578063081812fc14610170578063095ea7b3146101a8575b600080fd5b34801561012557600080fd5b50610139610134366004611c3e565b6103b1565b60405190151581526020015b60405180910390f35b34801561015a57600080fd5b50610163610403565b6040516101459190611e8d565b34801561017c57600080fd5b5061019061018b366004611d0c565b610495565b6040516001600160a01b039091168152602001610145565b3480156101b457600080fd5b506101c86101c3366004611c15565b6104bc565b005b3480156101d657600080fd5b506101df6105d7565b6040516101459190611dbc565b3480156101f857600080fd5b506101c8610207366004611b27565b6108a5565b34801561021857600080fd5b506101c8610227366004611b27565b6108d6565b6101c861023a366004611d0c565b6108f1565b34801561024b57600080fd5b5061019061025a366004611d0c565b610b65565b34801561026b57600080fd5b5061027f61027a366004611adb565b610bc5565b604051908152602001610145565b34801561029957600080fd5b506101c8610c4b565b6101c86102b0366004611c76565b610c5f565b3480156102c157600080fd5b506006546001600160a01b0316610190565b3480156102df57600080fd5b50610163610ef5565b3480156102f457600080fd5b506101c8610303366004611bdb565b610f04565b34801561031457600080fd5b506101c8610323366004611b62565b610f13565b34801561033457600080fd5b50610163610343366004611d0c565b610f4b565b34801561035457600080fd5b50610139610363366004611af5565b6001600160a01b03918216600090815260056020908152604080832093909416825291909152205460ff1690565b34801561039d57600080fd5b506101c86103ac366004611adb565b610fbf565b60006001600160e01b031982166380ac58cd60e01b14806103e257506001600160e01b03198216635b5e139f60e01b145b806103fd57506301ffc9a760e01b6001600160e01b03198316145b92915050565b6060600080546104129061201e565b80601f016020809104026020016040519081016040528092919081815260200182805461043e9061201e565b801561048b5780601f106104605761010080835404028352916020019161048b565b820191906000526020600020905b81548152906001019060200180831161046e57829003601f168201915b5050505050905090565b60006104a082611038565b506000908152600460205260409020546001600160a01b031690565b60006104c782610b65565b9050806001600160a01b0316836001600160a01b0316141561053a5760405162461bcd60e51b815260206004820152602160248201527f4552433732313a20617070726f76616c20746f2063757272656e74206f776e656044820152603960f91b60648201526084015b60405180910390fd5b336001600160a01b038216148061055657506105568133610363565b6105c85760405162461bcd60e51b815260206004820152603d60248201527f4552433732313a20617070726f76652063616c6c6572206973206e6f7420746f60448201527f6b656e206f776e6572206f7220617070726f76656420666f7220616c6c0000006064820152608401610531565b6105d28383611097565b505050565b60606105e260075490565b67ffffffffffffffff81111561060857634e487b7160e01b600052604160045260246000fd5b60405190808252806020026020018201604052801561064157816020015b61062e611954565b8152602001906001900390816106265790505b50905060005b6007548110156108a15760096000610660836001611f84565b81526020019081526020016000206040518060e00160405290816000820180546106899061201e565b80601f01602080910402602001604051908101604052809291908181526020018280546106b59061201e565b80156107025780601f106106d757610100808354040283529160200191610702565b820191906000526020600020905b8154815290600101906020018083116106e557829003601f168201915b5050505050815260200160018201805461071b9061201e565b80601f01602080910402602001604051908101604052809291908181526020018280546107479061201e565b80156107945780601f1061076957610100808354040283529160200191610794565b820191906000526020600020905b81548152906001019060200180831161077757829003601f168201915b505050505081526020016002820180546107ad9061201e565b80601f01602080910402602001604051908101604052809291908181526020018280546107d99061201e565b80156108265780601f106107fb57610100808354040283529160200191610826565b820191906000526020600020905b81548152906001019060200180831161080957829003601f168201915b50505091835250506003820154602082015260048201546001600160a01b0316604082015260058201546060820152600690910154608090910152825183908390811061088357634e487b7160e01b600052603260045260246000fd5b6020026020010181905250808061089990612059565b915050610647565b5090565b6108af3382611105565b6108cb5760405162461bcd60e51b815260040161053190611ea0565b6105d2838383611184565b6105d283838360405180602001604052806000815250610f13565b6000818152600260205260409020546001600160a01b031661094a5760405162461bcd60e51b815260206004820152601260248201527113919508191bd95cc81b9bdd08195e1a5cdd60721b6044820152606401610531565b600061095582610b65565b6001600160a01b031614156109a35760405162461bcd60e51b81526020600482015260146024820152734e4654206973206e6f7420617661696c61626c6560601b6044820152606401610531565b336109ad82610b65565b6001600160a01b03161415610a045760405162461bcd60e51b815260206004820152601b60248201527f596f752063616e6e6f742062757920796f7572206f776e204e465400000000006044820152606401610531565b600081815260096020526040902060050154341015610a5a5760405162461bcd60e51b8152602060048201526012602482015271496e73756666696369656e742066756e647360701b6044820152606401610531565b6000610a6582610b65565b600083815260096020526040812060068101546005909101549293509091606491610a8f91611fbc565b610a999190611f9c565b60008481526009602052604081206005015491925090610aba908390611fdb565b600085815260096020526040902060040180546001600160a01b03191633908117909155909150610aed90849086611184565b6040516001600160a01b0384169082156108fc029083906000818181858888f19350505050158015610b23573d6000803e3d6000fd5b506006546040516001600160a01b039091169083156108fc029084906000818181858888f19350505050158015610b5e573d6000803e3d6000fd5b5050505050565b6000818152600260205260408120546001600160a01b0316806103fd5760405162461bcd60e51b8152602060048201526018602482015277115490cdcc8c4e881a5b9d985b1a59081d1bdad95b88125160421b6044820152606401610531565b60006001600160a01b038216610c2f5760405162461bcd60e51b815260206004820152602960248201527f4552433732313a2061646472657373207a65726f206973206e6f7420612076616044820152683634b21037bbb732b960b91b6064820152608401610531565b506001600160a01b031660009081526003602052604090205490565b610c536112f5565b610c5d600061134f565b565b600854341015610ca75760405162461bcd60e51b8152602060048201526013602482015272125b9cdd59999a58da595b9d08185b5bdd5b9d606a1b6044820152606401610531565b6000855111610cef5760405162461bcd60e51b81526020600482015260146024820152734e616d652063616e6e6f7420626520656d70747960601b6044820152606401610531565b6000845111610d405760405162461bcd60e51b815260206004820152601b60248201527f4465736372697074696f6e2063616e6e6f7420626520656d70747900000000006044820152606401610531565b6000835111610d915760405162461bcd60e51b815260206004820152601860248201527f496d61676555726c2063616e6e6f7420626520656d70747900000000000000006044820152606401610531565b6064811115610df75760405162461bcd60e51b815260206004820152602c60248201527f526f79616c74792070657263656e74616765206d75737420626520626574776560448201526b0656e203020616e64203130360a41b6064820152608401610531565b610e05600780546001019055565b6000610e1060075490565b9050610e1c33826113a1565b610e24611954565b606081018290528681526020808201879052604080830187905260a0830186905233608084015260c0830185905260008481526009835220825180518493610e7092849291019061199a565b506020828101518051610e89926001850192019061199a565b5060408201518051610ea591600284019160209091019061199a565b506060820151600382015560808201516004820180546001600160a01b0319166001600160a01b0390921691909117905560a0820151600582015560c09091015160069091015550505050505050565b6060600180546104129061201e565b610f0f33838361153a565b5050565b610f1d3383611105565b610f395760405162461bcd60e51b815260040161053190611ea0565b610f4584848484611609565b50505050565b6060610f5682611038565b6000610f6d60408051602081019091526000815290565b90506000815111610f8d5760405180602001604052806000815250610fb8565b80610f978461163c565b604051602001610fa8929190611d50565b6040516020818303038152906040525b9392505050565b610fc76112f5565b6001600160a01b03811661102c5760405162461bcd60e51b815260206004820152602660248201527f4f776e61626c653a206e6577206f776e657220697320746865207a65726f206160448201526564647265737360d01b6064820152608401610531565b6110358161134f565b50565b6000818152600260205260409020546001600160a01b03166110355760405162461bcd60e51b8152602060048201526018602482015277115490cdcc8c4e881a5b9d985b1a59081d1bdad95b88125160421b6044820152606401610531565b600081815260046020526040902080546001600160a01b0319166001600160a01b03841690811790915581906110cc82610b65565b6001600160a01b03167f8c5be1e5ebec7d5bd14f71427d1e84f3dd0314c0f7b2291e5b200ac8c7c3b92560405160405180910390a45050565b60008061111183610b65565b9050806001600160a01b0316846001600160a01b0316148061115857506001600160a01b0380821660009081526005602090815260408083209388168352929052205460ff165b8061117c5750836001600160a01b031661117184610495565b6001600160a01b0316145b949350505050565b826001600160a01b031661119782610b65565b6001600160a01b0316146111bd5760405162461bcd60e51b815260040161053190611f3f565b6001600160a01b03821661121f5760405162461bcd60e51b8152602060048201526024808201527f4552433732313a207472616e7366657220746f20746865207a65726f206164646044820152637265737360e01b6064820152608401610531565b61122c83838360016116e7565b826001600160a01b031661123f82610b65565b6001600160a01b0316146112655760405162461bcd60e51b815260040161053190611f3f565b600081815260046020908152604080832080546001600160a01b03199081169091556001600160a01b0387811680865260038552838620805460001901905590871680865283862080546001019055868652600290945282852080549092168417909155905184937fddf252ad1be2c89b69c2b068fc378daa952ba7f163c4a11628f55a4df523b3ef91a4505050565b6006546001600160a01b03163314610c5d5760405162461bcd60e51b815260206004820181905260248201527f4f776e61626c653a2063616c6c6572206973206e6f7420746865206f776e65726044820152606401610531565b600680546001600160a01b038381166001600160a01b0319831681179093556040519116919082907f8be0079c531659141344cd1fd0a4f28419497f9722a3daafe3b4186f6b6457e090600090a35050565b6001600160a01b0382166113f75760405162461bcd60e51b815260206004820181905260248201527f4552433732313a206d696e7420746f20746865207a65726f20616464726573736044820152606401610531565b6000818152600260205260409020546001600160a01b03161561145c5760405162461bcd60e51b815260206004820152601c60248201527f4552433732313a20746f6b656e20616c7265616479206d696e746564000000006044820152606401610531565b61146a6000838360016116e7565b6000818152600260205260409020546001600160a01b0316156114cf5760405162461bcd60e51b815260206004820152601c60248201527f4552433732313a20746f6b656e20616c7265616479206d696e746564000000006044820152606401610531565b6001600160a01b038216600081815260036020908152604080832080546001019055848352600290915280822080546001600160a01b0319168417905551839291907fddf252ad1be2c89b69c2b068fc378daa952ba7f163c4a11628f55a4df523b3ef908290a45050565b816001600160a01b0316836001600160a01b0316141561159c5760405162461bcd60e51b815260206004820152601960248201527f4552433732313a20617070726f766520746f2063616c6c6572000000000000006044820152606401610531565b6001600160a01b03838116600081815260056020908152604080832094871680845294825291829020805460ff191686151590811790915591519182527f17307eab39ab6107e8899845ad3d59bd9653f200f220920489ca2b5937696c31910160405180910390a3505050565b611614848484611184565b6116208484848461176f565b610f455760405162461bcd60e51b815260040161053190611eed565b606060006116498361187c565b600101905060008167ffffffffffffffff81111561167757634e487b7160e01b600052604160045260246000fd5b6040519080825280601f01601f1916602001820160405280156116a1576020820181803683370190505b5090508181016020015b600019016f181899199a1a9b1b9c1cb0b131b232b360811b600a86061a8153600a85049450846116da576116df565b6116ab565b509392505050565b6001811115610f45576001600160a01b0384161561172d576001600160a01b03841660009081526003602052604081208054839290611727908490611fdb565b90915550505b6001600160a01b03831615610f45576001600160a01b03831660009081526003602052604081208054839290611764908490611f84565b909155505050505050565b60006001600160a01b0384163b1561187157604051630a85bd0160e11b81526001600160a01b0385169063150b7a02906117b3903390899088908890600401611d7f565b602060405180830381600087803b1580156117cd57600080fd5b505af19250505080156117fd575060408051601f3d908101601f191682019092526117fa91810190611c5a565b60015b611857573d80801561182b576040519150601f19603f3d011682016040523d82523d6000602084013e611830565b606091505b50805161184f5760405162461bcd60e51b815260040161053190611eed565b805181602001fd5b6001600160e01b031916630a85bd0160e11b14905061117c565b506001949350505050565b60008072184f03e93ff9f4daa797ed6e38ed64bf6a1f0160401b83106118bb5772184f03e93ff9f4daa797ed6e38ed64bf6a1f0160401b830492506040015b6d04ee2d6d415b85acef810000000083106118e7576d04ee2d6d415b85acef8100000000830492506020015b662386f26fc10000831061190557662386f26fc10000830492506010015b6305f5e100831061191d576305f5e100830492506008015b612710831061193157612710830492506004015b60648310611943576064830492506002015b600a83106103fd5760010192915050565b6040518060e001604052806060815260200160608152602001606081526020016000815260200160006001600160a01b0316815260200160008152602001600081525090565b8280546119a69061201e565b90600052602060002090601f0160209004810192826119c85760008555611a0e565b82601f106119e157805160ff1916838001178555611a0e565b82800160010185558215611a0e579182015b82811115611a0e5782518255916020019190600101906119f3565b506108a19291505b808211156108a15760008155600101611a16565b600067ffffffffffffffff80841115611a4557611a4561208a565b604051601f8501601f19908116603f01168101908282118183101715611a6d57611a6d61208a565b81604052809350858152868686011115611a8657600080fd5b858560208301376000602087830101525050509392505050565b80356001600160a01b0381168114611ab757600080fd5b919050565b600082601f830112611acc578081fd5b610fb883833560208501611a2a565b600060208284031215611aec578081fd5b610fb882611aa0565b60008060408385031215611b07578081fd5b611b1083611aa0565b9150611b1e60208401611aa0565b90509250929050565b600080600060608486031215611b3b578081fd5b611b4484611aa0565b9250611b5260208501611aa0565b9150604084013590509250925092565b60008060008060808587031215611b77578081fd5b611b8085611aa0565b9350611b8e60208601611aa0565b925060408501359150606085013567ffffffffffffffff811115611bb0578182fd5b8501601f81018713611bc0578182fd5b611bcf87823560208401611a2a565b91505092959194509250565b60008060408385031215611bed578182fd5b611bf683611aa0565b915060208301358015158114611c0a578182fd5b809150509250929050565b60008060408385031215611c27578182fd5b611c3083611aa0565b946020939093013593505050565b600060208284031215611c4f578081fd5b8135610fb8816120a0565b600060208284031215611c6b578081fd5b8151610fb8816120a0565b600080600080600060a08688031215611c8d578081fd5b853567ffffffffffffffff80821115611ca4578283fd5b611cb089838a01611abc565b96506020880135915080821115611cc5578283fd5b611cd189838a01611abc565b95506040880135915080821115611ce6578283fd5b50611cf388828901611abc565b9598949750949560608101359550608001359392505050565b600060208284031215611d1d578081fd5b5035919050565b60008151808452611d3c816020860160208601611ff2565b601f01601f19169290920160200192915050565b60008351611d62818460208801611ff2565b835190830190611d76818360208801611ff2565b01949350505050565b6001600160a01b0385811682528416602082015260408101839052608060608201819052600090611db290830184611d24565b9695505050505050565b60006020808301818452808551808352604092508286019150828160051b870101848801865b83811015611e7f57603f19898403018552815160e08151818652611e0882870182611d24565b915050888201518582038a870152611e208282611d24565b9150508782015185820389870152611e388282611d24565b606084810151908801526080808501516001600160a01b03169088015260a0808501519088015260c093840151939096019290925250509386019390860190600101611de2565b509098975050505050505050565b602081526000610fb86020830184611d24565b6020808252602d908201527f4552433732313a2063616c6c6572206973206e6f7420746f6b656e206f776e6560408201526c1c881bdc88185c1c1c9bdd9959609a1b606082015260800190565b60208082526032908201527f4552433732313a207472616e7366657220746f206e6f6e20455243373231526560408201527131b2b4bb32b91034b6b83632b6b2b73a32b960711b606082015260800190565b60208082526025908201527f4552433732313a207472616e736665722066726f6d20696e636f72726563742060408201526437bbb732b960d91b606082015260800190565b60008219821115611f9757611f97612074565b500190565b600082611fb757634e487b7160e01b81526012600452602481fd5b500490565b6000816000190483118215151615611fd657611fd6612074565b500290565b600082821015611fed57611fed612074565b500390565b60005b8381101561200d578181015183820152602001611ff5565b83811115610f455750506000910152565b600181811c9082168061203257607f821691505b6020821081141561205357634e487b7160e01b600052602260045260246000fd5b50919050565b600060001982141561206d5761206d612074565b5060010190565b634e487b7160e01b600052601160045260246000fd5b634e487b7160e01b600052604160045260246000fd5b6001600160e01b03198116811461103557600080fdfea2646970667358221220fdf1a2418e7ae436b3bacf6ef99e03b82b8e499570ddb11f26c0963baa71d15e64736f6c63430008040033",
  "linkReferences": {},
  "deployedLinkReferences": {}
}